{
  "contractName": "Controller",
  "abi": [
    {
      "constant": false,
      "inputs": [],
      "name": "unpause",
      "outputs": [],
      "payable": false,
      "stateMutability": "nonpayable",
      "type": "function"
    },
    {
      "constant": true,
      "inputs": [],
      "name": "paused",
      "outputs": [
        {
          "name": "",
          "type": "bool"
        }
      ],
      "payable": false,
      "stateMutability": "view",
      "type": "function"
    },
    {
      "constant": false,
      "inputs": [],
      "name": "pause",
      "outputs": [],
      "payable": false,
      "stateMutability": "nonpayable",
      "type": "function"
    },
    {
      "constant": true,
      "inputs": [],
      "name": "owner",
      "outputs": [
        {
          "name": "",
          "type": "address"
        }
      ],
      "payable": false,
      "stateMutability": "view",
      "type": "function"
    },
    {
      "constant": false,
      "inputs": [
        {
          "name": "newOwner",
          "type": "address"
        }
      ],
      "name": "transferOwnership",
      "outputs": [],
      "payable": false,
      "stateMutability": "nonpayable",
      "type": "function"
    },
    {
      "inputs": [],
      "payable": false,
      "stateMutability": "nonpayable",
      "type": "constructor"
    },
    {
      "anonymous": false,
      "inputs": [
        {
          "indexed": false,
          "name": "id",
          "type": "bytes32"
        },
        {
          "indexed": false,
          "name": "contractAddress",
          "type": "address"
        },
        {
          "indexed": false,
          "name": "gitCommitHash",
          "type": "bytes20"
        }
      ],
      "name": "SetContractInfo",
      "type": "event"
    },
    {
      "anonymous": false,
      "inputs": [],
      "name": "Pause",
      "type": "event"
    },
    {
      "anonymous": false,
      "inputs": [],
      "name": "Unpause",
      "type": "event"
    },
    {
      "anonymous": false,
      "inputs": [
        {
          "indexed": true,
          "name": "previousOwner",
          "type": "address"
        },
        {
          "indexed": true,
          "name": "newOwner",
          "type": "address"
        }
      ],
      "name": "OwnershipTransferred",
      "type": "event"
    },
    {
      "constant": false,
      "inputs": [
        {
          "name": "_id",
          "type": "bytes32"
        },
        {
          "name": "_contractAddress",
          "type": "address"
        },
        {
          "name": "_gitCommitHash",
          "type": "bytes20"
        }
      ],
      "name": "setContractInfo",
      "outputs": [],
      "payable": false,
      "stateMutability": "nonpayable",
      "type": "function"
    },
    {
      "constant": false,
      "inputs": [
        {
          "name": "_id",
          "type": "bytes32"
        },
        {
          "name": "_controller",
          "type": "address"
        }
      ],
      "name": "updateController",
      "outputs": [],
      "payable": false,
      "stateMutability": "nonpayable",
      "type": "function"
    },
    {
      "constant": true,
      "inputs": [
        {
          "name": "_id",
          "type": "bytes32"
        }
      ],
      "name": "getContractInfo",
      "outputs": [
        {
          "name": "",
          "type": "address"
        },
        {
          "name": "",
          "type": "bytes20"
        }
      ],
      "payable": false,
      "stateMutability": "view",
      "type": "function"
    },
    {
      "constant": true,
      "inputs": [
        {
          "name": "_id",
          "type": "bytes32"
        }
      ],
      "name": "getContract",
      "outputs": [
        {
          "name": "",
          "type": "address"
        }
      ],
      "payable": false,
      "stateMutability": "view",
      "type": "function"
    }
  ],
  "bytecode": "0x60606040526000805460a060020a60ff0219169055341561001f57600080fd5b6000805474010000000000000000000000000000000000000000600160a060020a031990911633600160a060020a03161760a060020a60ff0219161781556105a690819061006d90396000f3006060604052600436106100985763ffffffff7c01000000000000000000000000000000000000000000000000000000006000350416633f4ba83a811461009d5780635c975abb146100b2578063613e2de2146100d95780638456cb59146101205780638da5cb5b14610133578063d737c2b014610162578063e16c7d9814610196578063eb5dd94f146101ac578063f2fde38b146101ce575b600080fd5b34156100a857600080fd5b6100b06101ed565b005b34156100bd57600080fd5b6100c561026c565b604051901515815260200160405180910390f35b34156100e457600080fd5b6100ef60043561027c565b604051600160a060020a0390921682526bffffffffffffffffffffffff191660208201526040908101905180910390f35b341561012b57600080fd5b6100b06102b2565b341561013e57600080fd5b610146610336565b604051600160a060020a03909116815260200160405180910390f35b341561016d57600080fd5b6100b0600435600160a060020a03602435166bffffffffffffffffffffffff1960443516610345565b34156101a157600080fd5b610146600435610419565b34156101b757600080fd5b6100b0600435600160a060020a0360243516610434565b34156101d957600080fd5b6100b0600160a060020a03600435166104df565b60005433600160a060020a0390811691161461020857600080fd5b60005460a060020a900460ff16151561022057600080fd5b6000805474ff0000000000000000000000000000000000000000191690557f7805862f689e2f13df9f062ff482ad3ad112aca9e0847911ed832e158c525b3360405160405180910390a1565b60005460a060020a900460ff1681565b60008181526001602081905260409091208054910154600160a060020a03909116906c0100000000000000000000000002915091565b60005433600160a060020a039081169116146102cd57600080fd5b60005460a060020a900460ff16156102e457600080fd5b6000805474ff0000000000000000000000000000000000000000191660a060020a1790557f6985a02210a168e66602d3235cb6db0e70f92b3ba4d376a33c0f3d9434bff62560405160405180910390a1565b600054600160a060020a031681565b60005433600160a060020a0390811691161461036057600080fd5b600083815260016020819052604091829020805473ffffffffffffffffffffffffffffffffffffffff19908116600160a060020a038716178255910180549091166c0100000000000000000000000084041790557ff9a6cf519167d81bc5cb3d26c60c0c9a19704aa908c148e82a861b570f4cd2d79084908490849051928352600160a060020a0390911660208301526bffffffffffffffffffffffff19166040808301919091526060909101905180910390a1505050565b600090815260016020526040902054600160a060020a031690565b60005433600160a060020a0390811691161461044f57600080fd5b6000828152600160205260409081902054600160a060020a0316906392eefe9b908390517c010000000000000000000000000000000000000000000000000000000063ffffffff8416028152600160a060020a039091166004820152602401600060405180830381600087803b15156104c757600080fd5b6102c65a03f115156104d857600080fd5b5050505050565b60005433600160a060020a039081169116146104fa57600080fd5b600160a060020a038116151561050f57600080fd5b600054600160a060020a0380831691167f8be0079c531659141344cd1fd0a4f28419497f9722a3daafe3b4186f6b6457e060405160405180910390a36000805473ffffffffffffffffffffffffffffffffffffffff1916600160a060020a03929092169190911790555600a165627a7a72305820a7040cf68145912cc040d51044e1b1ac59898228fe12d2d00feeb31cd1314a000029",
  "source": "pragma solidity ^0.4.17;\n\nimport \"./IController.sol\";\nimport \"./IManager.sol\";\n\nimport \"zeppelin-solidity/contracts/lifecycle/Pausable.sol\";\n\n\ncontract Controller is Pausable, IController {\n    // Track information about a registered contract\n    struct ContractInfo {\n        address contractAddress;                 // Address of contract\n        bytes20 gitCommitHash;                   // SHA1 hash of head Git commit during registration of this contract\n    }\n\n    // Track contract ids and contract info\n    mapping (bytes32 => ContractInfo) private registry;\n\n    function Controller() public {\n        // Start system as paused\n        paused = true;\n    }\n\n    /*\n     * @dev Register contract id and mapped address\n     * @param _id Contract id (keccak256 hash of contract name)\n     * @param _contract Contract address\n     */\n    function setContractInfo(bytes32 _id, address _contractAddress, bytes20 _gitCommitHash) external onlyOwner {\n        registry[_id].contractAddress = _contractAddress;\n        registry[_id].gitCommitHash = _gitCommitHash;\n\n        SetContractInfo(_id, _contractAddress, _gitCommitHash);\n    }\n\n    /*\n     * @dev Update contract's controller\n     * @param _id Contract id (keccak256 hash of contract name)\n     * @param _controller Controller address\n     */\n    function updateController(bytes32 _id, address _controller) external onlyOwner {\n        return IManager(registry[_id].contractAddress).setController(_controller);\n    }\n\n    /*\n     * @dev Return contract info for a given contract id\n     * @param _id Contract id (keccak256 hash of contract name)\n     */\n    function getContractInfo(bytes32 _id) public view returns (address, bytes20) {\n        return (registry[_id].contractAddress, registry[_id].gitCommitHash);\n    }\n\n    /*\n     * @dev Get contract address for an id\n     * @param _id Contract id\n     */\n    function getContract(bytes32 _id) public view returns (address) {\n        return registry[_id].contractAddress;\n    }\n}\n",
  "sourcePath": "/Users/ericxtang/Code/Livepeer/protocol/contracts/Controller.sol",
  "compiler": {
    "name": "solc",
    "version": "0.4.19+commit.c4cbbb05.Emscripten.clang"
  },
  "schemaVersion": "1.0.1",
  "updatedAt": "2018-03-22T04:01:51.868Z"
}