{
  "contractName": "LivepeerVerifier",
  "abi": [
    {
      "constant": true,
      "inputs": [
        {
          "name": "",
          "type": "address"
        }
      ],
      "name": "isSolver",
      "outputs": [
        {
          "name": "",
          "type": "bool"
        }
      ],
      "payable": false,
      "stateMutability": "view",
      "type": "function"
    },
    {
      "constant": true,
      "inputs": [],
      "name": "verificationCodeHash",
      "outputs": [
        {
          "name": "",
          "type": "string"
        }
      ],
      "payable": false,
      "stateMutability": "view",
      "type": "function"
    },
    {
      "constant": true,
      "inputs": [],
      "name": "requestCount",
      "outputs": [
        {
          "name": "",
          "type": "uint256"
        }
      ],
      "payable": false,
      "stateMutability": "view",
      "type": "function"
    },
    {
      "constant": true,
      "inputs": [
        {
          "name": "",
          "type": "uint256"
        }
      ],
      "name": "requests",
      "outputs": [
        {
          "name": "jobId",
          "type": "uint256"
        },
        {
          "name": "claimId",
          "type": "uint256"
        },
        {
          "name": "segmentNumber",
          "type": "uint256"
        },
        {
          "name": "commitHash",
          "type": "bytes32"
        }
      ],
      "payable": false,
      "stateMutability": "view",
      "type": "function"
    },
    {
      "constant": true,
      "inputs": [
        {
          "name": "",
          "type": "uint256"
        }
      ],
      "name": "solvers",
      "outputs": [
        {
          "name": "",
          "type": "address"
        }
      ],
      "payable": false,
      "stateMutability": "view",
      "type": "function"
    },
    {
      "constant": false,
      "inputs": [
        {
          "name": "_controller",
          "type": "address"
        }
      ],
      "name": "setController",
      "outputs": [],
      "payable": false,
      "stateMutability": "nonpayable",
      "type": "function"
    },
    {
      "constant": true,
      "inputs": [],
      "name": "controller",
      "outputs": [
        {
          "name": "",
          "type": "address"
        }
      ],
      "payable": false,
      "stateMutability": "view",
      "type": "function"
    },
    {
      "inputs": [
        {
          "name": "_controller",
          "type": "address"
        },
        {
          "name": "_solvers",
          "type": "address[]"
        },
        {
          "name": "_verificationCodeHash",
          "type": "string"
        }
      ],
      "payable": false,
      "stateMutability": "nonpayable",
      "type": "constructor"
    },
    {
      "anonymous": false,
      "inputs": [
        {
          "indexed": true,
          "name": "requestId",
          "type": "uint256"
        },
        {
          "indexed": true,
          "name": "jobId",
          "type": "uint256"
        },
        {
          "indexed": true,
          "name": "claimId",
          "type": "uint256"
        },
        {
          "indexed": false,
          "name": "segmentNumber",
          "type": "uint256"
        },
        {
          "indexed": false,
          "name": "transcodingOptions",
          "type": "string"
        },
        {
          "indexed": false,
          "name": "dataStorageHash",
          "type": "string"
        },
        {
          "indexed": false,
          "name": "dataHash",
          "type": "bytes32"
        },
        {
          "indexed": false,
          "name": "transcodedDataHash",
          "type": "bytes32"
        }
      ],
      "name": "VerifyRequest",
      "type": "event"
    },
    {
      "anonymous": false,
      "inputs": [
        {
          "indexed": true,
          "name": "requestId",
          "type": "uint256"
        },
        {
          "indexed": true,
          "name": "jobId",
          "type": "uint256"
        },
        {
          "indexed": true,
          "name": "claimId",
          "type": "uint256"
        },
        {
          "indexed": false,
          "name": "segmentNumber",
          "type": "uint256"
        },
        {
          "indexed": false,
          "name": "result",
          "type": "bool"
        }
      ],
      "name": "Callback",
      "type": "event"
    },
    {
      "anonymous": false,
      "inputs": [
        {
          "indexed": false,
          "name": "controller",
          "type": "address"
        }
      ],
      "name": "SetController",
      "type": "event"
    },
    {
      "anonymous": false,
      "inputs": [
        {
          "indexed": false,
          "name": "param",
          "type": "string"
        }
      ],
      "name": "ParameterUpdate",
      "type": "event"
    },
    {
      "constant": false,
      "inputs": [
        {
          "name": "_verificationCodeHash",
          "type": "string"
        }
      ],
      "name": "setVerificationCodeHash",
      "outputs": [],
      "payable": false,
      "stateMutability": "nonpayable",
      "type": "function"
    },
    {
      "constant": false,
      "inputs": [
        {
          "name": "_solver",
          "type": "address"
        }
      ],
      "name": "addSolver",
      "outputs": [],
      "payable": false,
      "stateMutability": "nonpayable",
      "type": "function"
    },
    {
      "constant": false,
      "inputs": [
        {
          "name": "_jobId",
          "type": "uint256"
        },
        {
          "name": "_claimId",
          "type": "uint256"
        },
        {
          "name": "_segmentNumber",
          "type": "uint256"
        },
        {
          "name": "_transcodingOptions",
          "type": "string"
        },
        {
          "name": "_dataStorageHash",
          "type": "string"
        },
        {
          "name": "_dataHashes",
          "type": "bytes32[2]"
        }
      ],
      "name": "verify",
      "outputs": [],
      "payable": true,
      "stateMutability": "payable",
      "type": "function"
    },
    {
      "constant": false,
      "inputs": [
        {
          "name": "_requestId",
          "type": "uint256"
        },
        {
          "name": "_result",
          "type": "bytes32"
        }
      ],
      "name": "__callback",
      "outputs": [],
      "payable": false,
      "stateMutability": "nonpayable",
      "type": "function"
    },
    {
      "constant": true,
      "inputs": [],
      "name": "getPrice",
      "outputs": [
        {
          "name": "",
          "type": "uint256"
        }
      ],
      "payable": false,
      "stateMutability": "view",
      "type": "function"
    }
  ],
  "bytecode": "0x606060405234156200001057600080fd5b60405162000fd838038062000fd8833981016040528080519190602001805182019190602001805160008054600160a060020a031916600160a060020a03871617815592019190505b82518110156200012357600360008483815181106200007457fe5b90602001906020020151600160a060020a0316815260208101919091526040016000205460ff16158015620000c957506000838281518110620000b357fe5b90602001906020020151600160a060020a031614155b1515620000d557600080fd5b600160036000858481518110620000e857fe5b90602001906020020151600160a060020a031681526020810191909152604001600020805460ff191691151591909117905560010162000059565b60028380516200013892916020019062000159565b5060018280516200014e929160200190620001c5565b50505050506200028d565b828054828255906000526020600020908101928215620001b3579160200282015b82811115620001b35782518254600160a060020a031916600160a060020a0391909116178255602092909201916001909101906200017a565b50620001c192915062000246565b5090565b828054600181600116156101000203166002900490600052602060002090601f016020900481019282601f106200020857805160ff191683800117855562000238565b8280016001018555821562000238579182015b82811115620002385782518255916020019190600101906200021b565b50620001c192915062000270565b6200026d91905b80821115620001c1578054600160a060020a03191681556001016200024d565b90565b6200026d91905b80821115620001c1576000815560010162000277565b610d3b806200029d6000396000f3006060604052600436106100a05763ffffffff60e060020a60003504166302cc250d81146100a557806341af1524146100d85780634862e650146101625780635badbe4c1461018257806381d12c58146101a75780638c118cf1146101e957806392ce765e1461021657806392eefe9b146102485780639842a37c1461026757806398d5fdca14610280578063ec58f4b814610293578063f77c4791146102b2575b600080fd5b34156100b057600080fd5b6100c4600160a060020a03600435166102c5565b604051901515815260200160405180910390f35b34156100e357600080fd5b6100eb6102da565b60405160208082528190810183818151815260200191508051906020019080838360005b8381101561012757808201518382015260200161010f565b50505050905090810190601f1680156101545780820380516001836020036101000a031916815260200191505b509250505060405180910390f35b341561016d57600080fd5b6101806004803560248101910135610378565b005b341561018d57600080fd5b61019561040c565b60405190815260200160405180910390f35b34156101b257600080fd5b6101bd600435610412565b604051938452602084019290925260408084019190915260608301919091526080909101905180910390f35b610180600480359060248035916044359160643580820192908101359160843590810191013560a4610439565b341561022157600080fd5b61022c600435610679565b604051600160a060020a03909116815260200160405180910390f35b341561025357600080fd5b610180600160a060020a03600435166106a1565b341561027257600080fd5b610180600435602435610724565b341561028b57600080fd5b610195610af9565b341561029e57600080fd5b610180600160a060020a0360043516610aff565b34156102bd57600080fd5b61022c610c21565b60036020526000908152604090205460ff1681565b60018054600181600116156101000203166002900480601f0160208091040260200160405190810160405280929190818152602001828054600181600116156101000203166002900480156103705780601f1061034557610100808354040283529160200191610370565b820191906000526020600020905b81548152906001019060200180831161035357829003601f168201915b505050505081565b60008054600160a060020a031690638da5cb5b90604051602001526040518163ffffffff1660e060020a028152600401602060405180830381600087803b15156103c157600080fd5b6102c65a03f115156103d257600080fd5b50505060405180519050600160a060020a031633600160a060020a03161415156103fb57600080fd5b61040760018383610c30565b505050565b60055481565b60046020526000908152604090208054600182015460028301546003909301549192909184565b600054600160a060020a031663e16c7d986040517f4a6f62734d616e616765720000000000000000000000000000000000000000008152600b01604051809103902060006040516020015260405160e060020a63ffffffff84160281526004810191909152602401602060405180830381600087803b15156104ba57600080fd5b6102c65a03f115156104cb57600080fd5b50505060405180519050600160a060020a031633600160a060020a03161415156104f457600080fd5b60008054600160a060020a031690635c975abb90604051602001526040518163ffffffff1660e060020a028152600401602060405180830381600087803b151561053d57600080fd5b6102c65a03f1151561054e57600080fd5b505050604051805115905061056257600080fd5b6005805460009081526004602090815260408083208c9055835483528083206001018b905592548252908290206002018890558235919083013590519182526020820152604090810190519081900390206005805460009081526004602090815260409182902060030193909355905489928b927ff68da1a7e850796ae5473e78db07307108751eec3461dddf5ef610db7dfaaf56918b918b918b918b918b918b35918c01359051878152606081018390526080810182905260a0602082018181529082018790526040820160c08301898980828437909101848103835287815260200190508787808284378201915050995050505050505050505060405180910390a45050600580546001019055505050505050565b600280548290811061068757fe5b600091825260209091200154600160a060020a0316905081565b60005433600160a060020a039081169116146106bc57600080fd5b6000805473ffffffffffffffffffffffffffffffffffffffff1916600160a060020a0383161790557f4ff638452bbf33c012645d18ae6f05515ff5f2d1dfb0cece8cbf018c60903f7081604051600160a060020a03909116815260200160405180910390a150565b61072c610cae565b600160a060020a03331660009081526003602052604090205460ff16151561075357600080fd5b60008054600160a060020a031690635c975abb90604051602001526040518163ffffffff1660e060020a028152600401602060405180830381600087803b151561079c57600080fd5b6102c65a03f115156107ad57600080fd5b50505060405180511590506107c157600080fd5b6000838152600460205260409081902090608090519081016040908152825482526001830154602083015260028301549082015260039091015460608201908152909150829051141561097257600054600160a060020a031663e16c7d986040517f4a6f62734d616e616765720000000000000000000000000000000000000000008152600b01604051809103902060006040516020015260405160e060020a63ffffffff84160281526004810191909152602401602060405180830381600087803b151561088f57600080fd5b6102c65a03f115156108a057600080fd5b5050506040518051600160a060020a03169050631e0976f3825183602001518460400151600160405160e060020a63ffffffff871602815260048101949094526024840192909252604483015215156064820152608401600060405180830381600087803b151561091057600080fd5b6102c65a03f1151561092157600080fd5b50505080602001518151847faa22eba262859195ec25c1d3c94f98248add6d1374bd46df08c78470225df8d384604001516001604051918252151560208201526040908101905180910390a4610ad2565b600054600160a060020a031663e16c7d986040517f4a6f62734d616e616765720000000000000000000000000000000000000000008152600b01604051809103902060006040516020015260405160e060020a63ffffffff84160281526004810191909152602401602060405180830381600087803b15156109f357600080fd5b6102c65a03f11515610a0457600080fd5b5050506040518051600160a060020a03169050631e0976f3825183602001518460400151600060405160e060020a63ffffffff871602815260048101949094526024840192909252604483015215156064820152608401600060405180830381600087803b1515610a7457600080fd5b6102c65a03f11515610a8557600080fd5b50505080602001518151847faa22eba262859195ec25c1d3c94f98248add6d1374bd46df08c78470225df8d384604001516000604051918252151560208201526040908101905180910390a45b50506000908152600460205260408120818155600181018290556002810182905560030155565b60005b90565b60008054600160a060020a031690638da5cb5b90604051602001526040518163ffffffff1660e060020a028152600401602060405180830381600087803b1515610b4857600080fd5b6102c65a03f11515610b5957600080fd5b50505060405180519050600160a060020a031633600160a060020a0316141515610b8257600080fd5b600160a060020a0381161515610b9757600080fd5b600160a060020a03811660009081526003602052604090205460ff1615610bbd57600080fd5b6002805460018101610bcf8382610cd5565b5060009182526020808320919091018054600160a060020a0390941673ffffffffffffffffffffffffffffffffffffffff1990941684179055918152600390915260409020805460ff19166001179055565b600054600160a060020a031681565b828054600181600116156101000203166002900490600052602060002090601f016020900481019282601f10610c715782800160ff19823516178555610c9e565b82800160010185558215610c9e579182015b82811115610c9e578235825591602001919060010190610c83565b50610caa929150610cf5565b5090565b60806040519081016040908152600080835260208301819052908201819052606082015290565b815481835581811511610407576000838152602090206104079181019083015b610afc91905b80821115610caa5760008155600101610cfb5600a165627a7a72305820f8a5dafa98059d2c357eee0d32a4a814a553cbfd7e8457f57539b9f7ecd5872a0029",
  "source": "pragma solidity ^0.4.17;\n\nimport \"../Manager.sol\";\nimport \"./IVerifier.sol\";\nimport \"./IVerifiable.sol\";\n\n\ncontract LivepeerVerifier is Manager, IVerifier {\n    // IPFS hash of verification computation archive\n    string public verificationCodeHash;\n    // Solvers that can submit results for requests\n    address[] public solvers;\n    // Track if an address is a solver\n    mapping (address => bool) public isSolver;\n\n    struct Request {\n        uint256 jobId;\n        uint256 claimId;\n        uint256 segmentNumber;\n        bytes32 commitHash;\n    }\n\n    mapping (uint256 => Request) public requests;\n    uint256 public requestCount;\n\n    event VerifyRequest(uint256 indexed requestId, uint256 indexed jobId, uint256 indexed claimId, uint256 segmentNumber, string transcodingOptions, string dataStorageHash, bytes32 dataHash, bytes32 transcodedDataHash);\n    event Callback(uint256 indexed requestId, uint256 indexed jobId, uint256 indexed claimId, uint256 segmentNumber, bool result);\n\n    // Check if sender is JobsManager\n    modifier onlyJobsManager() {\n        require(msg.sender == controller.getContract(keccak256(\"JobsManager\")));\n        _;\n    }\n\n    // Check if sender is a solver\n    modifier onlySolvers() {\n        require(isSolver[msg.sender]);\n        _;\n    }\n\n    function LivepeerVerifier(address _controller, address[] _solvers, string _verificationCodeHash) public Manager(_controller) {\n        // Set solvers\n        for (uint256 i = 0; i < _solvers.length; i++) {\n            // Address must not already be a solver and must not be a null address\n            require(!isSolver[_solvers[i]] && _solvers[i] != address(0));\n\n            isSolver[_solvers[i]] = true;\n        }\n        solvers = _solvers;\n        // Set verification code hash\n        verificationCodeHash = _verificationCodeHash;\n    }\n\n    function setVerificationCodeHash(string _verificationCodeHash) external onlyControllerOwner {\n        verificationCodeHash = _verificationCodeHash;\n    }\n\n    function addSolver(address _solver) external onlyControllerOwner {\n        // Must not be null address\n        require(_solver != address(0));\n        // Must not already be a solver\n        require(!isSolver[_solver]);\n\n        solvers.push(_solver);\n        isSolver[_solver] = true;\n    }\n\n    /*\n     * @dev Fire VerifyRequest event which solvers should listen for to retrieve verification parameters\n     */\n    function verify(\n        uint256 _jobId,\n        uint256 _claimId,\n        uint256 _segmentNumber,\n        string _transcodingOptions,\n        string _dataStorageHash,\n        bytes32[2] _dataHashes\n    )\n        external\n        payable\n        onlyJobsManager\n        whenSystemNotPaused\n    {\n        // Store request parameters\n        requests[requestCount].jobId = _jobId;\n        requests[requestCount].claimId = _claimId;\n        requests[requestCount].segmentNumber = _segmentNumber;\n        requests[requestCount].commitHash = keccak256(_dataHashes[0], _dataHashes[1]);\n\n        VerifyRequest(\n            requestCount,\n            _jobId,\n            _claimId,\n            _segmentNumber,\n            _transcodingOptions,\n            _dataStorageHash,\n            _dataHashes[0],\n            _dataHashes[1]\n        );\n\n        // Update request count\n        requestCount++;\n    }\n\n    /*\n     * @dev Callback function invoked by a solver to submit the result of a verification computation\n     * @param _requestId Request identifier\n     * @param _result Result of verification computation - keccak256 hash of transcoded segment data\n     */\n    // solium-disable-next-line mixedcase\n    function __callback(uint256 _requestId, bytes32 _result) external onlySolvers whenSystemNotPaused {\n        Request memory q = requests[_requestId];\n\n        // Check if transcoded data hash returned by solver matches originally submitted transcoded data hash\n        if (q.commitHash == _result) {\n            IVerifiable(controller.getContract(keccak256(\"JobsManager\"))).receiveVerification(q.jobId, q.claimId, q.segmentNumber, true);\n            Callback(_requestId, q.jobId, q.claimId, q.segmentNumber, true);\n        } else {\n            IVerifiable(controller.getContract(keccak256(\"JobsManager\"))).receiveVerification(q.jobId, q.claimId, q.segmentNumber, false);\n            Callback(_requestId, q.jobId, q.claimId, q.segmentNumber, false);\n        }\n\n        // Remove request\n        delete requests[_requestId];\n    }\n\n    /*\n     * @dev Return price of verification which is zero for this implementation\n     */\n    function getPrice() public view returns (uint256) {\n        return 0;\n    }\n}\n",
  "sourcePath": "/Users/ericxtang/Code/Livepeer/protocol/contracts/verification/LivepeerVerifier.sol",
  "compiler": {
    "name": "solc",
    "version": "0.4.19+commit.c4cbbb05.Emscripten.clang"
  },
  "schemaVersion": "1.0.1",
  "updatedAt": "2018-03-22T04:01:51.891Z"
}